{
  "_format": "hh-sol-artifact-1",
  "contractName": "PunchPortal",
  "sourceName": "contracts/PunchPortal.sol",
  "abi": [
    {
      "inputs": [
        {
          "internalType": "uint8",
          "name": "_winningRate",
          "type": "uint8"
        }
      ],
      "stateMutability": "payable",
      "type": "constructor"
    },
    {
      "anonymous": false,
      "inputs": [
        {
          "indexed": true,
          "internalType": "address",
          "name": "from",
          "type": "address"
        },
        {
          "indexed": false,
          "internalType": "uint256",
          "name": "timestamp",
          "type": "uint256"
        },
        {
          "indexed": false,
          "internalType": "string",
          "name": "message",
          "type": "string"
        }
      ],
      "name": "NewPunch",
      "type": "event"
    },
    {
      "inputs": [
        {
          "internalType": "address",
          "name": "",
          "type": "address"
        }
      ],
      "name": "addressPunchCounts",
      "outputs": [
        {
          "internalType": "uint256",
          "name": "",
          "type": "uint256"
        }
      ],
      "stateMutability": "view",
      "type": "function"
    },
    {
      "inputs": [],
      "name": "getAllPunches",
      "outputs": [
        {
          "components": [
            {
              "internalType": "address",
              "name": "puncher",
              "type": "address"
            },
            {
              "internalType": "string",
              "name": "message",
              "type": "string"
            },
            {
              "internalType": "uint256",
              "name": "timestamp",
              "type": "uint256"
            }
          ],
          "internalType": "struct PunchPortal.Punch[]",
          "name": "",
          "type": "tuple[]"
        }
      ],
      "stateMutability": "view",
      "type": "function"
    },
    {
      "inputs": [],
      "name": "getTotalPunches",
      "outputs": [
        {
          "internalType": "uint256",
          "name": "",
          "type": "uint256"
        }
      ],
      "stateMutability": "view",
      "type": "function"
    },
    {
      "inputs": [
        {
          "internalType": "address",
          "name": "",
          "type": "address"
        }
      ],
      "name": "lastPunchAt",
      "outputs": [
        {
          "internalType": "uint256",
          "name": "",
          "type": "uint256"
        }
      ],
      "stateMutability": "view",
      "type": "function"
    },
    {
      "inputs": [
        {
          "internalType": "string",
          "name": "_message",
          "type": "string"
        }
      ],
      "name": "punch",
      "outputs": [],
      "stateMutability": "nonpayable",
      "type": "function"
    }
  ],
  "bytecode": "0x60a06040526040516200174038038062001740833981810160405281019062000029919062000175565b620000586040518060800160405280604a8152602001620016f6604a91396200009260201b620007851760201c565b6064444262000068919062000222565b620000749190620002cc565b6003819055508060ff1660808160ff1660f81b81525050506200038d565b6200013281604051602401620000a99190620001e2565b6040516020818303038152906040527f41304fac000000000000000000000000000000000000000000000000000000007bffffffffffffffffffffffffffffffffffffffffffffffffffffffff19166020820180517bffffffffffffffffffffffffffffffffffffffffffffffffffffffff83818316178352505050506200013560201b60201c565b50565b60008151905060006a636f6e736f6c652e6c6f679050602083016000808483855afa5050505050565b6000815190506200016f8162000373565b92915050565b6000602082840312156200018857600080fd5b600062000198848285016200015e565b91505092915050565b6000620001ae8262000206565b620001ba818562000211565b9350620001cc81856020860162000296565b620001d78162000362565b840191505092915050565b60006020820190508181036000830152620001fe8184620001a1565b905092915050565b600081519050919050565b600082825260208201905092915050565b60006200022f826200027f565b91506200023c836200027f565b9250827fffffffffffffffffffffffffffffffffffffffffffffffffffffffffffffffff0382111562000274576200027362000304565b5b828201905092915050565b6000819050919050565b600060ff82169050919050565b60005b83811015620002b657808201518184015260208101905062000299565b83811115620002c6576000848401525b50505050565b6000620002d9826200027f565b9150620002e6836200027f565b925082620002f957620002f862000333565b5b828206905092915050565b7f4e487b7100000000000000000000000000000000000000000000000000000000600052601160045260246000fd5b7f4e487b7100000000000000000000000000000000000000000000000000000000600052601260045260246000fd5b6000601f19601f8301169050919050565b6200037e8162000289565b81146200038a57600080fd5b50565b60805160f81c61134a620003ac6000396000610418015261134a6000f3fe608060405234801561001057600080fd5b50600436106100575760003560e01c80631b462d891461005c5780631d7b9b941461008c5780634b217808146100a85780639bcfc932146100c6578063a4e35a91146100e4575b600080fd5b61007660048036038101906100719190610b3e565b610114565b6040516100839190610f12565b60405180910390f35b6100a660048036038101906100a19190610b67565b61012c565b005b6100b06105d1565b6040516100bd9190610f12565b60405180910390f35b6100ce61061c565b6040516100db9190610dd0565b60405180910390f35b6100fe60048036038101906100f99190610b3e565b61076d565b60405161010b9190610f12565b60405180910390f35b60016020528060005260406000206000915090505481565b42601e600160003373ffffffffffffffffffffffffffffffffffffffff1673ffffffffffffffffffffffffffffffffffffffff168152602001908152602001600020546101799190611024565b106101b9576040517f08c379a00000000000000000000000000000000000000000000000000000000081526004016101b090610eb2565b60405180910390fd5b42600160003373ffffffffffffffffffffffffffffffffffffffff1673ffffffffffffffffffffffffffffffffffffffff168152602001908152602001600020819055506001600260008282546102109190611024565b9250508190555060016000803373ffffffffffffffffffffffffffffffffffffffff1673ffffffffffffffffffffffffffffffffffffffff16815260200190815260200160002060008282546102669190611024565b925050819055506102eb6040518060400160405280601e81526020017f25732070756e63686564206d652120546f74616c2070756e63683a2025730000815250336000803373ffffffffffffffffffffffffffffffffffffffff1673ffffffffffffffffffffffffffffffffffffffff1681526020019081526020016000205461081e565b600460405180606001604052803373ffffffffffffffffffffffffffffffffffffffff16815260200183815260200142815250908060018154018082558091505060019003906000526020600020906003020160009091909190915060008201518160000160006101000a81548173ffffffffffffffffffffffffffffffffffffffff021916908373ffffffffffffffffffffffffffffffffffffffff16021790555060208201518160010190805190602001906103aa929190610a1e565b50604082015181600201555050606444426103c59190611024565b6103cf919061115b565b6003819055506104166040518060400160405280601681526020017f52616e646f6d20232067656e6572617465643a202564000000000000000000008152506003546108bd565b7f000000000000000000000000000000000000000000000000000000000000000060ff166003541161057e576104816040518060400160405280601381526020017f257320676f7420746865206a61636b706f74210000000000000000000000000081525033610959565b6000655af3107a40009050478111156104cf576040517f08c379a00000000000000000000000000000000000000000000000000000000081526004016104c690610ed2565b60405180910390fd5b60003373ffffffffffffffffffffffffffffffffffffffff16826040516104f590610dbb565b60006040518083038185875af1925050503d8060008114610532576040519150601f19603f3d011682016040523d82523d6000602084013e610537565b606091505b505090508061057b576040517f08c379a000000000000000000000000000000000000000000000000000000000815260040161057290610ef2565b60405180910390fd5b50505b3373ffffffffffffffffffffffffffffffffffffffff167fa35f355e23ec0767309d4cb5da7655124db14a880f63b11d8daf51b4f3c0f81842836040516105c6929190610f2d565b60405180910390a250565b60006106146040518060400160405280601981526020017f5765206861766520256420746f74616c2070756e6368657321000000000000008152506002546108bd565b600254905090565b60606004805480602002602001604051908101604052809291908181526020016000905b8282101561076457838290600052602060002090600302016040518060600160405290816000820160009054906101000a900473ffffffffffffffffffffffffffffffffffffffff1673ffffffffffffffffffffffffffffffffffffffff1673ffffffffffffffffffffffffffffffffffffffff1681526020016001820180546106c9906110f8565b80601f01602080910402602001604051908101604052809291908181526020018280546106f5906110f8565b80156107425780601f1061071757610100808354040283529160200191610742565b820191906000526020600020905b81548152906001019060200180831161072557829003601f168201915b5050505050815260200160028201548152505081526020019060010190610640565b50505050905090565b60006020528060005260406000206000915090505481565b61081b816040516024016107999190610df2565b6040516020818303038152906040527f41304fac000000000000000000000000000000000000000000000000000000007bffffffffffffffffffffffffffffffffffffffffffffffffffffffff19166020820180517bffffffffffffffffffffffffffffffffffffffffffffffffffffffff83818316178352505050506109f5565b50565b6108b883838360405160240161083693929190610e44565b6040516020818303038152906040527f07c81217000000000000000000000000000000000000000000000000000000007bffffffffffffffffffffffffffffffffffffffffffffffffffffffff19166020820180517bffffffffffffffffffffffffffffffffffffffffffffffffffffffff83818316178352505050506109f5565b505050565b61095582826040516024016108d3929190610e82565b6040516020818303038152906040527f9710a9d0000000000000000000000000000000000000000000000000000000007bffffffffffffffffffffffffffffffffffffffffffffffffffffffff19166020820180517bffffffffffffffffffffffffffffffffffffffffffffffffffffffff83818316178352505050506109f5565b5050565b6109f1828260405160240161096f929190610e14565b6040516020818303038152906040527f319af333000000000000000000000000000000000000000000000000000000007bffffffffffffffffffffffffffffffffffffffffffffffffffffffff19166020820180517bffffffffffffffffffffffffffffffffffffffffffffffffffffffff83818316178352505050506109f5565b5050565b60008151905060006a636f6e736f6c652e6c6f679050602083016000808483855afa5050505050565b828054610a2a906110f8565b90600052602060002090601f016020900481019282610a4c5760008555610a93565b82601f10610a6557805160ff1916838001178555610a93565b82800160010185558215610a93579182015b82811115610a92578251825591602001919060010190610a77565b5b509050610aa09190610aa4565b5090565b5b80821115610abd576000816000905550600101610aa5565b5090565b6000610ad4610acf84610f82565b610f5d565b905082815260208101848484011115610aec57600080fd5b610af78482856110b6565b509392505050565b600081359050610b0e816112fd565b92915050565b600082601f830112610b2557600080fd5b8135610b35848260208601610ac1565b91505092915050565b600060208284031215610b5057600080fd5b6000610b5e84828501610aff565b91505092915050565b600060208284031215610b7957600080fd5b600082013567ffffffffffffffff811115610b9357600080fd5b610b9f84828501610b14565b91505092915050565b6000610bb48383610d4d565b905092915050565b610bc58161107a565b82525050565b610bd48161107a565b82525050565b6000610be582610fc3565b610bef8185610fe6565b935083602082028501610c0185610fb3565b8060005b85811015610c3d5784840389528151610c1e8582610ba8565b9450610c2983610fd9565b925060208a01995050600181019050610c05565b50829750879550505050505092915050565b6000610c5a82610fce565b610c648185611002565b9350610c748185602086016110c5565b610c7d81611248565b840191505092915050565b6000610c9382610fce565b610c9d8185611013565b9350610cad8185602086016110c5565b610cb681611248565b840191505092915050565b6000610cce600c83611013565b9150610cd982611259565b602082019050919050565b6000610cf1602c83611013565b9150610cfc82611282565b604082019050919050565b6000610d14600083610ff7565b9150610d1f826112d1565b600082019050919050565b6000610d37601983611013565b9150610d42826112d4565b602082019050919050565b6000606083016000830151610d656000860182610bbc565b5060208301518482036020860152610d7d8282610c4f565b9150506040830151610d926040860182610d9d565b508091505092915050565b610da6816110ac565b82525050565b610db5816110ac565b82525050565b6000610dc682610d07565b9150819050919050565b60006020820190508181036000830152610dea8184610bda565b905092915050565b60006020820190508181036000830152610e0c8184610c88565b905092915050565b60006040820190508181036000830152610e2e8185610c88565b9050610e3d6020830184610bcb565b9392505050565b60006060820190508181036000830152610e5e8186610c88565b9050610e6d6020830185610bcb565b610e7a6040830184610dac565b949350505050565b60006040820190508181036000830152610e9c8185610c88565b9050610eab6020830184610dac565b9392505050565b60006020820190508181036000830152610ecb81610cc1565b9050919050565b60006020820190508181036000830152610eeb81610ce4565b9050919050565b60006020820190508181036000830152610f0b81610d2a565b9050919050565b6000602082019050610f276000830184610dac565b92915050565b6000604082019050610f426000830185610dac565b8181036020830152610f548184610c88565b90509392505050565b6000610f67610f78565b9050610f73828261112a565b919050565b6000604051905090565b600067ffffffffffffffff821115610f9d57610f9c611219565b5b610fa682611248565b9050602081019050919050565b6000819050602082019050919050565b600081519050919050565b600081519050919050565b6000602082019050919050565b600082825260208201905092915050565b600081905092915050565b600082825260208201905092915050565b600082825260208201905092915050565b600061102f826110ac565b915061103a836110ac565b9250827fffffffffffffffffffffffffffffffffffffffffffffffffffffffffffffffff0382111561106f5761106e61118c565b5b828201905092915050565b60006110858261108c565b9050919050565b600073ffffffffffffffffffffffffffffffffffffffff82169050919050565b6000819050919050565b82818337600083830152505050565b60005b838110156110e35780820151818401526020810190506110c8565b838111156110f2576000848401525b50505050565b6000600282049050600182168061111057607f821691505b60208210811415611124576111236111ea565b5b50919050565b61113382611248565b810181811067ffffffffffffffff8211171561115257611151611219565b5b80604052505050565b6000611166826110ac565b9150611171836110ac565b925082611181576111806111bb565b5b828206905092915050565b7f4e487b7100000000000000000000000000000000000000000000000000000000600052601160045260246000fd5b7f4e487b7100000000000000000000000000000000000000000000000000000000600052601260045260246000fd5b7f4e487b7100000000000000000000000000000000000000000000000000000000600052602260045260246000fd5b7f4e487b7100000000000000000000000000000000000000000000000000000000600052604160045260246000fd5b6000601f19601f8301169050919050565b7f5761697420333020736563730000000000000000000000000000000000000000600082015250565b7f5072697a652076616c75652069732067726561746572207468616e20636f6e7460008201527f726163742062616c616e63650000000000000000000000000000000000000000602082015250565b50565b7f42616c616e6365206f6e20636f6e747261637420647269656400000000000000600082015250565b6113068161107a565b811461131157600080fd5b5056fea2646970667358221220ffaeb56dc5f7284b21a029e1941a0b167ccec25538da1a8b2dca5f040bc6d5cb64736f6c634300080400334920616d206120736d61727420636f6e74726163742c2049206c65742070656f706c6520746f2070756e636820746865206465706c6f796572206f66207468697320636f6e7472616374",
  "linkReferences": {},
  "deployedLinkReferences": {}
}